{
  "_format": "hh-sol-artifact-1",
  "contractName": "LotteryDapp",
  "sourceName": "contracts/LotteryDapp.sol",
  "abi": [
    {
      "inputs": [
        {
          "internalType": "uint256",
          "name": "_setvicePercent",
          "type": "uint256"
        }
      ],
      "stateMutability": "nonpayable",
      "type": "constructor"
    },
    {
      "anonymous": false,
      "inputs": [
        {
          "indexed": true,
          "internalType": "address",
          "name": "previousOwner",
          "type": "address"
        },
        {
          "indexed": true,
          "internalType": "address",
          "name": "newOwner",
          "type": "address"
        }
      ],
      "name": "OwnershipTransferred",
      "type": "event"
    },
    {
      "inputs": [
        {
          "internalType": "uint256",
          "name": "id",
          "type": "uint256"
        },
        {
          "internalType": "uint256",
          "name": "luckyNumberId",
          "type": "uint256"
        }
      ],
      "name": "buyTicket",
      "outputs": [],
      "stateMutability": "payable",
      "type": "function"
    },
    {
      "inputs": [
        {
          "internalType": "string",
          "name": "title",
          "type": "string"
        },
        {
          "internalType": "string",
          "name": "description",
          "type": "string"
        },
        {
          "internalType": "string",
          "name": "image",
          "type": "string"
        },
        {
          "internalType": "uint256",
          "name": "prize",
          "type": "uint256"
        },
        {
          "internalType": "uint256",
          "name": "ticketPrice",
          "type": "uint256"
        },
        {
          "internalType": "uint256",
          "name": "expiresAt",
          "type": "uint256"
        }
      ],
      "name": "createLottery",
      "outputs": [],
      "stateMutability": "nonpayable",
      "type": "function"
    },
    {
      "inputs": [],
      "name": "getLotteries",
      "outputs": [
        {
          "components": [
            {
              "internalType": "uint256",
              "name": "id",
              "type": "uint256"
            },
            {
              "internalType": "string",
              "name": "title",
              "type": "string"
            },
            {
              "internalType": "string",
              "name": "description",
              "type": "string"
            },
            {
              "internalType": "string",
              "name": "image",
              "type": "string"
            },
            {
              "internalType": "uint256",
              "name": "prize",
              "type": "uint256"
            },
            {
              "internalType": "uint256",
              "name": "ticketPrice",
              "type": "uint256"
            },
            {
              "internalType": "uint256",
              "name": "participants",
              "type": "uint256"
            },
            {
              "internalType": "uint256",
              "name": "winners",
              "type": "uint256"
            },
            {
              "internalType": "bool",
              "name": "drawn",
              "type": "bool"
            },
            {
              "internalType": "address",
              "name": "owner",
              "type": "address"
            },
            {
              "internalType": "uint256",
              "name": "createAt",
              "type": "uint256"
            },
            {
              "internalType": "uint256",
              "name": "expiresAt",
              "type": "uint256"
            }
          ],
          "internalType": "struct LotteryDapp.LotteryStruct[]",
          "name": "Lotteries",
          "type": "tuple[]"
        }
      ],
      "stateMutability": "view",
      "type": "function"
    },
    {
      "inputs": [
        {
          "internalType": "uint256",
          "name": "id",
          "type": "uint256"
        }
      ],
      "name": "getLottery",
      "outputs": [
        {
          "components": [
            {
              "internalType": "uint256",
              "name": "id",
              "type": "uint256"
            },
            {
              "internalType": "string",
              "name": "title",
              "type": "string"
            },
            {
              "internalType": "string",
              "name": "description",
              "type": "string"
            },
            {
              "internalType": "string",
              "name": "image",
              "type": "string"
            },
            {
              "internalType": "uint256",
              "name": "prize",
              "type": "uint256"
            },
            {
              "internalType": "uint256",
              "name": "ticketPrice",
              "type": "uint256"
            },
            {
              "internalType": "uint256",
              "name": "participants",
              "type": "uint256"
            },
            {
              "internalType": "uint256",
              "name": "winners",
              "type": "uint256"
            },
            {
              "internalType": "bool",
              "name": "drawn",
              "type": "bool"
            },
            {
              "internalType": "address",
              "name": "owner",
              "type": "address"
            },
            {
              "internalType": "uint256",
              "name": "createAt",
              "type": "uint256"
            },
            {
              "internalType": "uint256",
              "name": "expiresAt",
              "type": "uint256"
            }
          ],
          "internalType": "struct LotteryDapp.LotteryStruct",
          "name": "",
          "type": "tuple"
        }
      ],
      "stateMutability": "view",
      "type": "function"
    },
    {
      "inputs": [
        {
          "internalType": "uint256",
          "name": "id",
          "type": "uint256"
        }
      ],
      "name": "getLotteryLuckyNumbers",
      "outputs": [
        {
          "internalType": "string[]",
          "name": "",
          "type": "string[]"
        }
      ],
      "stateMutability": "view",
      "type": "function"
    },
    {
      "inputs": [
        {
          "internalType": "uint256",
          "name": "id",
          "type": "uint256"
        }
      ],
      "name": "getLotteryParticipants",
      "outputs": [
        {
          "components": [
            {
              "internalType": "address",
              "name": "account",
              "type": "address"
            },
            {
              "internalType": "string",
              "name": "lotteryNumber",
              "type": "string"
            },
            {
              "internalType": "bool",
              "name": "paid",
              "type": "bool"
            }
          ],
          "internalType": "struct LotteryDapp.ParticipantStruct[]",
          "name": "",
          "type": "tuple[]"
        }
      ],
      "stateMutability": "view",
      "type": "function"
    },
    {
      "inputs": [
        {
          "internalType": "uint256",
          "name": "id",
          "type": "uint256"
        }
      ],
      "name": "getLotteryResult",
      "outputs": [
        {
          "components": [
            {
              "internalType": "uint256",
              "name": "id",
              "type": "uint256"
            },
            {
              "internalType": "bool",
              "name": "completed",
              "type": "bool"
            },
            {
              "internalType": "bool",
              "name": "paidout",
              "type": "bool"
            },
            {
              "internalType": "uint256",
              "name": "timestamp",
              "type": "uint256"
            },
            {
              "internalType": "uint256",
              "name": "sharePerWinner",
              "type": "uint256"
            },
            {
              "components": [
                {
                  "internalType": "address",
                  "name": "account",
                  "type": "address"
                },
                {
                  "internalType": "string",
                  "name": "lotteryNumber",
                  "type": "string"
                },
                {
                  "internalType": "bool",
                  "name": "paid",
                  "type": "bool"
                }
              ],
              "internalType": "struct LotteryDapp.ParticipantStruct[]",
              "name": "winners",
              "type": "tuple[]"
            }
          ],
          "internalType": "struct LotteryDapp.LotteryResultStruct",
          "name": "",
          "type": "tuple"
        }
      ],
      "stateMutability": "view",
      "type": "function"
    },
    {
      "inputs": [
        {
          "internalType": "uint256",
          "name": "id",
          "type": "uint256"
        },
        {
          "internalType": "string[]",
          "name": "luckyNumbers",
          "type": "string[]"
        }
      ],
      "name": "importLuckyNumbers",
      "outputs": [],
      "stateMutability": "nonpayable",
      "type": "function"
    },
    {
      "inputs": [],
      "name": "owner",
      "outputs": [
        {
          "internalType": "address",
          "name": "",
          "type": "address"
        }
      ],
      "stateMutability": "view",
      "type": "function"
    },
    {
      "inputs": [
        {
          "internalType": "uint256",
          "name": "id",
          "type": "uint256"
        },
        {
          "internalType": "uint256",
          "name": "numOfWinners",
          "type": "uint256"
        }
      ],
      "name": "randomlySelectWinners",
      "outputs": [],
      "stateMutability": "nonpayable",
      "type": "function"
    },
    {
      "inputs": [],
      "name": "renounceOwnership",
      "outputs": [],
      "stateMutability": "nonpayable",
      "type": "function"
    },
    {
      "inputs": [],
      "name": "serviceBalance",
      "outputs": [
        {
          "internalType": "uint256",
          "name": "",
          "type": "uint256"
        }
      ],
      "stateMutability": "view",
      "type": "function"
    },
    {
      "inputs": [],
      "name": "servicePercent",
      "outputs": [
        {
          "internalType": "uint256",
          "name": "",
          "type": "uint256"
        }
      ],
      "stateMutability": "view",
      "type": "function"
    },
    {
      "inputs": [
        {
          "internalType": "address",
          "name": "newOwner",
          "type": "address"
        }
      ],
      "name": "transferOwnership",
      "outputs": [],
      "stateMutability": "nonpayable",
      "type": "function"
    }
  ],
  "bytecode": "0x60806040523480156200001157600080fd5b506040516200266838038062002668833981016040819052620000349162000098565b6200003f3362000048565b600755620000b2565b600080546001600160a01b038381166001600160a01b0319831681178455604051919092169283917f8be0079c531659141344cd1fd0a4f28419497f9722a3daafe3b4186f6b6457e09190a35050565b600060208284031215620000ab57600080fd5b5051919050565b6125a680620000c26000396000f3fe6080604052600436106100dd5760003560e01c806392e845f61161007f578063bcc82ec411610059578063bcc82ec414610255578063e2e4351614610277578063e8d490f114610297578063f2fde38b146102ad57600080fd5b806392e845f6146101db578063949ee75214610208578063ad19c8391461023557600080fd5b806370b261ae116100bb57806370b261ae1461014d578063715018a6146101715780638772d2dd146101865780638da5cb5b146101b357600080fd5b8063298ec208146100e257806335ea2063146100f757806368fb2eba14610117575b600080fd5b6100f56100f0366004611d84565b6102cd565b005b34801561010357600080fd5b506100f5610112366004611e5d565b61054c565b34801561012357600080fd5b50610137610132366004611f2c565b610677565b6040516101449190611f8b565b60405180910390f35b34801561015957600080fd5b5061016360085481565b604051908152602001610144565b34801561017d57600080fd5b506100f56107a3565b34801561019257600080fd5b506101a66101a1366004611f2c565b6107b7565b6040516101449190612019565b3480156101bf57600080fd5b506000546040516001600160a01b039091168152602001610144565b3480156101e757600080fd5b506101fb6101f6366004611f2c565b610962565b60405161014491906121b3565b34801561021457600080fd5b50610228610223366004611f2c565b610bae565b60405161014491906121cd565b34801561024157600080fd5b506100f561025036600461222f565b610c8f565b34801561026157600080fd5b5061026a610fae565b60405161014491906122d3565b34801561028357600080fd5b506100f5610292366004611d84565b611295565b3480156102a357600080fd5b5061016360075481565b3480156102b957600080fd5b506100f56102c8366004612328565b611889565b600082815260056020908152604080832084845290915290205460ff161561033c5760405162461bcd60e51b815260206004820152601960248201527f4c75636b79206e756d62657220616c726561647920757365640000000000000060448201526064015b60405180910390fd5b6000828152600260205260409020600501543410156103ab5760405162461bcd60e51b815260206004820152602560248201527f496e73756666696369656e742065746865727320746f206275792074686520746044820152641a58dad95d60da1b6064820152608401610333565b60008281526002602052604081206006018054916103c883612367565b9091555050600082815260036020908152604080832081516060810183523381528685526004845291909320805491928301918590811061040b5761040b612380565b90600052602060002001805461042090612396565b80601f016020809104026020016040519081016040528092919081815260200182805461044c90612396565b80156104995780601f1061046e57610100808354040283529160200191610499565b820191906000526020600020905b81548152906001019060200180831161047c57829003601f168201915b50505091835250506000602091820181905283546001808201865594825290829020835160039092020180546001600160a01b0319166001600160a01b039092169190911781559082015191929091908201906104f6908261241e565b506040918201516002909101805491151560ff19928316179055600084815260056020908152838220858352905291822080549091166001179055600880543492906105439084906124de565b90915550505050565b600081511161059d5760405162461bcd60e51b815260206004820152601c60248201527f4c75636b79206e756d626572732063616e6e6f74206265207a65726f000000006044820152606401610333565b60008281526002602052604090206008015461010090046001600160a01b031633146106015760405162461bcd60e51b8152602060048201526013602482015272556e617574686f72697a656420656e7469747960681b6044820152606401610333565b6000828152600460205260409020546001116106535760405162461bcd60e51b8152602060048201526011602482015270105b1c9958591e4819d95b995c985d1959607a1b6044820152606401610333565b6000828152600460209081526040909120825161067292840190611c5f565b505050565b606060036000838152602001908152602001600020805480602002602001604051908101604052809291908181526020016000905b8282101561079857600084815260209081902060408051606081019091526003850290910180546001600160a01b0316825260018101805492939192918401916106f590612396565b80601f016020809104026020016040519081016040528092919081815260200182805461072190612396565b801561076e5780601f106107435761010080835404028352916020019161076e565b820191906000526020600020905b81548152906001019060200180831161075157829003601f168201915b50505091835250506002919091015460ff16151560209182015290825260019290920191016106ac565b505050509050919050565b6107ab611902565b6107b5600061195c565b565b6107f46040518060c00160405280600081526020016000151581526020016000151581526020016000815260200160008152602001606081525090565b6000828152600660209081526040808320815160c08101835281548152600182015460ff8082161515838701526101009091041615158184015260028201546060820152600382015460808201526004820180548451818702810187019095528085529195929460a0870194939192919084015b8282101561095457600084815260209081902060408051606081019091526003850290910180546001600160a01b0316825260018101805492939192918401916108b190612396565b80601f01602080910402602001604051908101604052809291908181526020018280546108dd90612396565b801561092a5780601f106108ff5761010080835404028352916020019161092a565b820191906000526020600020905b81548152906001019060200180831161090d57829003601f168201915b50505091835250506002919091015460ff1615156020918201529082526001929092019101610868565b505050915250909392505050565b61096a611cb1565b6002600083815260200190815260200160002060405180610180016040529081600082015481526020016001820180546109a390612396565b80601f01602080910402602001604051908101604052809291908181526020018280546109cf90612396565b8015610a1c5780601f106109f157610100808354040283529160200191610a1c565b820191906000526020600020905b8154815290600101906020018083116109ff57829003601f168201915b50505050508152602001600282018054610a3590612396565b80601f0160208091040260200160405190810160405280929190818152602001828054610a6190612396565b8015610aae5780601f10610a8357610100808354040283529160200191610aae565b820191906000526020600020905b815481529060010190602001808311610a9157829003601f168201915b50505050508152602001600382018054610ac790612396565b80601f0160208091040260200160405190810160405280929190818152602001828054610af390612396565b8015610b405780601f10610b1557610100808354040283529160200191610b40565b820191906000526020600020905b815481529060010190602001808311610b2357829003601f168201915b505050918352505060048201546020820152600582015460408201526006820154606082015260078201546080820152600882015460ff8116151560a08301526001600160a01b03610100918290041660c0830152600983015460e0830152600a9092015491015292915050565b606060046000838152602001908152602001600020805480602002602001604051908101604052809291908181526020016000905b82821015610798578382906000526020600020018054610c0290612396565b80601f0160208091040260200160405190810160405280929190818152602001828054610c2e90612396565b8015610c7b5780601f10610c5057610100808354040283529160200191610c7b565b820191906000526020600020905b815481529060010190602001808311610c5e57829003601f168201915b505050505081526020019060010190610be3565b6000865111610cd85760405162461bcd60e51b81526020600482015260156024820152747469746c652063616e6e6f7420626520656d70747960581b6044820152606401610333565b6000855111610d295760405162461bcd60e51b815260206004820152601b60248201527f6465736372697074696f6e2063616e6e6f7420626520656d70747900000000006044820152606401610333565b6000845111610d725760405162461bcd60e51b8152602060048201526015602482015274696d6167652063616e6e6f7420626520656d70747960581b6044820152606401610333565b60008311610db95760405162461bcd60e51b81526020600482015260146024820152737072697a652063616e6e6f74206265207a65726f60601b6044820152606401610333565b60008211610e095760405162461bcd60e51b815260206004820152601a60248201527f7469636b657450726963652063616e6e6f74206265207a65726f0000000000006044820152606401610333565b610e116119ac565b8111610e705760405162461bcd60e51b815260206004820152602860248201527f6578706972657341742063616e6e6f74206265206c657373207468616e207468604482015267652066757475726560c01b6064820152608401610333565b610e7e600180546001019055565b610e86611cb1565b60015481526020810187905260408101869052606081018590526080810184905260a0810183905233610120820152610ebd6119ac565b61014082015261016081018290528051600090815260026020908152604090912082518155908201518291906001820190610ef8908261241e565b5060408201516002820190610f0d908261241e565b5060608201516003820190610f22908261241e565b506080820151600482015560a0820151600582015560c0820151600682015560e08201516007820155610100808301516008830180546101208601516001600160a81b0319909116921515610100600160a81b031916929092176001600160a01b03909216909202179055610140820151600982015561016090910151600a9091015550505050505050565b6060610fb960015490565b67ffffffffffffffff811115610fd157610fd1611da6565b60405190808252806020026020018201604052801561100a57816020015b610ff7611cb1565b815260200190600190039081610fef5790505b50905060015b60015481116112915760026000828152602001908152602001600020604051806101800160405290816000820154815260200160018201805461105290612396565b80601f016020809104026020016040519081016040528092919081815260200182805461107e90612396565b80156110cb5780601f106110a0576101008083540402835291602001916110cb565b820191906000526020600020905b8154815290600101906020018083116110ae57829003601f168201915b505050505081526020016002820180546110e490612396565b80601f016020809104026020016040519081016040528092919081815260200182805461111090612396565b801561115d5780601f106111325761010080835404028352916020019161115d565b820191906000526020600020905b81548152906001019060200180831161114057829003601f168201915b5050505050815260200160038201805461117690612396565b80601f01602080910402602001604051908101604052809291908181526020018280546111a290612396565b80156111ef5780601f106111c4576101008083540402835291602001916111ef565b820191906000526020600020905b8154815290600101906020018083116111d257829003601f168201915b505050918352505060048201546020820152600582015460408201526006820154606082015260078201546080820152600882015460ff8116151560a08301526001600160a01b03610100918290041660c0830152600983015460e0830152600a90920154910152826112636001846124f1565b8151811061127357611273612380565b6020026020010181905250808061128990612367565b915050611010565b5090565b60008281526002602052604090206008015461010090046001600160a01b03163314806112cc57506000546001600160a01b031633145b61130e5760405162461bcd60e51b8152602060048201526013602482015272556e617574686f72697a656420656e7469747960681b6044820152606401610333565b60008281526006602052604090206001015460ff161561137c5760405162461bcd60e51b815260206004820152602360248201527f4c6f7474657279206861766520616c7265616479206265656e20636f6d706c656044820152621d195960ea1b6064820152608401610333565b6000828152600360205260409020548111156113f35760405162461bcd60e51b815260206004820152603060248201527f4e756d626572206f662077696e6e6572732065786365656473206e756d62657260448201526f206f66207061727469636970616e747360801b6064820152608401610333565b60008167ffffffffffffffff81111561140e5761140e611da6565b60405190808252806020026020018201604052801561146e57816020015b61145b604051806060016040528060006001600160a01b03168152602001606081526020016000151581525090565b81526020019060019003908161142c5790505b509050600060036000858152602001908152602001600020805480602002602001604051908101604052809291908181526020016000905b8282101561159257600084815260209081902060408051606081019091526003850290910180546001600160a01b0316825260018101805492939192918401916114ef90612396565b80601f016020809104026020016040519081016040528092919081815260200182805461151b90612396565b80156115685780601f1061153d57610100808354040283529160200191611568565b820191906000526020600020905b81548152906001019060200180831161154b57829003601f168201915b50505091835250506002919091015460ff16151560209182015290825260019290920191016114a6565b5050505090506000815167ffffffffffffffff8111156115b4576115b4611da6565b6040519080825280602002602001820160405280156115dd578160200160208202803683370190505b50905060005b825181101561161c57808282815181106115ff576115ff612380565b60209081029190910101528061161481612367565b9150506115e3565b5060006001835161162d91906124f1565b90505b600181106117105760006116458260016124de565b61164d6119ac565b60408051602081019290925281018490526060016040516020818303038152906040528051906020012060001c611684919061251a565b9050600083828151811061169a5761169a612380565b602002602001015190508383815181106116b6576116b6612380565b60200260200101518483815181106116d0576116d0612380565b602002602001018181525050808484815181106116ef576116ef612380565b602002602001018181525050505080806117089061252e565b915050611630565b5060005b84811015611818578282828151811061172f5761172f612380565b60200260200101518151811061174757611747612380565b602002602001015184828151811061176157611761612380565b60200260200101819052506006600087815260200190815260200160002060040184828151811061179457611794612380565b602090810291909101810151825460018082018555600094855293839020825160039092020180546001600160a01b0319166001600160a01b039092169190911781559181015190928201906117ea908261241e565b50604091909101516002909101805460ff19169115159190911790558061181081612367565b915050611714565b5060008581526006602052604090206001908101805460ff1916909117905561183f6119ac565b6000868152600660209081526040808320600280820195909555600401549390915290206007810191909155600801805460ff19166001179055611882856119cd565b5050505050565b611891611902565b6001600160a01b0381166118f65760405162461bcd60e51b815260206004820152602660248201527f4f776e61626c653a206e6577206f776e657220697320746865207a65726f206160448201526564647265737360d01b6064820152608401610333565b6118ff8161195c565b50565b6000546001600160a01b031633146107b55760405162461bcd60e51b815260206004820181905260248201527f4f776e61626c653a2063616c6c6572206973206e6f7420746865206f776e65726044820152606401610333565b600080546001600160a01b038381166001600160a01b0319831681178455604051919092169283917f8be0079c531659141344cd1fd0a4f28419497f9722a3daafe3b4186f6b6457e09190a35050565b6000806119bb426103e8612545565b6119c7906103e86124de565b92915050565b600081815260066020908152604080832060040180548251818502810185019093528083529192909190849084015b82821015611ae857600084815260209081902060408051606081019091526003850290910180546001600160a01b031682526001810180549293919291840191611a4590612396565b80601f0160208091040260200160405190810160405280929190818152602001828054611a7190612396565b8015611abe5780601f10611a9357610100808354040283529160200191611abe565b820191906000526020600020905b815481529060010190602001808311611aa157829003601f168201915b50505091835250506002919091015460ff16151560209182015290825260019290920191016119fc565b50505060008481526003602090815260408083205460029092528220600501549394509092611b179250612545565b90506000606460075483611b2b9190612545565b611b35919061255c565b90506000611b4382846124f1565b90506000845182611b54919061255c565b905060005b8551811015611b9b57611b89868281518110611b7757611b77612380565b60200260200101516000015183611bff565b80611b9381612367565b915050611b59565b50611bb7611bb16000546001600160a01b031690565b84611bff565b8360086000828254611bc991906124f1565b9091555050600086815260066020526040902095865560018601805461ff00191661010017905560039095019490945550505050565b6000826001600160a01b03168260405160006040518083038185875af1925050503d8060008114611c4c576040519150601f19603f3d011682016040523d82523d6000602084013e611c51565b606091505b505090508061067257600080fd5b828054828255906000526020600020908101928215611ca5579160200282015b82811115611ca55782518290611c95908261241e565b5091602001919060010190611c7f565b50611291929150611d1d565b604051806101800160405280600081526020016060815260200160608152602001606081526020016000815260200160008152602001600081526020016000815260200160001515815260200160006001600160a01b0316815260200160008152602001600081525090565b80821115611291576000611d318282611d3a565b50600101611d1d565b508054611d4690612396565b6000825580601f10611d56575050565b601f0160209004906000526020600020908101906118ff91905b808211156112915760008155600101611d70565b60008060408385031215611d9757600080fd5b50508035926020909101359150565b634e487b7160e01b600052604160045260246000fd5b604051601f8201601f1916810167ffffffffffffffff81118282101715611de557611de5611da6565b604052919050565b600082601f830112611dfe57600080fd5b813567ffffffffffffffff811115611e1857611e18611da6565b611e2b601f8201601f1916602001611dbc565b818152846020838601011115611e4057600080fd5b816020850160208301376000918101602001919091529392505050565b60008060408385031215611e7057600080fd5b8235915060208084013567ffffffffffffffff80821115611e9057600080fd5b818601915086601f830112611ea457600080fd5b813581811115611eb657611eb6611da6565b8060051b611ec5858201611dbc565b918252838101850191858101908a841115611edf57600080fd5b86860192505b83831015611f1b57823585811115611efd5760008081fd5b611f0b8c89838a0101611ded565b8352509186019190860190611ee5565b809750505050505050509250929050565b600060208284031215611f3e57600080fd5b5035919050565b6000815180845260005b81811015611f6b57602081850181015186830182015201611f4f565b506000602082860101526020601f19601f83011685010191505092915050565b60006020808301818452808551808352604092508286019150828160051b87010184880160005b8381101561200b57888303603f19018552815180516001600160a01b0316845287810151606089860181905290611feb82870182611f45565b928901511515958901959095525094870194925090860190600101611fb2565b509098975050505050505050565b6000602080835260e0830184518285015281850151604081151581870152808701519150606082151581880152808801516080880152608088015160a088015260a0880151925060c08088015283835180865261010095508589019150858160051b8a01019550868501945060005b818110156120dd5789870360ff19018352855180516001600160a01b03168852888101518989018690526120be868a0182611f45565b9187015115159887019890985296509487019491870191600101612088565b50949998505050505050505050565b600061018082518452602083015181602086015261210c82860182611f45565b915050604083015184820360408601526121268282611f45565b915050606083015184820360608601526121408282611f45565b9150506080830151608085015260a083015160a085015260c083015160c085015260e083015160e08501526101008084015161217f8287018215159052565b5050610120838101516001600160a01b03169085015261014080840151908501526101609283015192909301919091525090565b6020815260006121c660208301846120ec565b9392505050565b6000602080830181845280855180835260408601915060408160051b870101925083870160005b8281101561222257603f19888603018452612210858351611f45565b945092850192908501906001016121f4565b5092979650505050505050565b60008060008060008060c0878903121561224857600080fd5b863567ffffffffffffffff8082111561226057600080fd5b61226c8a838b01611ded565b9750602089013591508082111561228257600080fd5b61228e8a838b01611ded565b965060408901359150808211156122a457600080fd5b506122b189828a01611ded565b945050606087013592506080870135915060a087013590509295509295509295565b6000602080830181845280855180835260408601915060408160051b870101925083870160005b8281101561222257603f198886030184526123168583516120ec565b945092850192908501906001016122fa565b60006020828403121561233a57600080fd5b81356001600160a01b03811681146121c657600080fd5b634e487b7160e01b600052601160045260246000fd5b60006001820161237957612379612351565b5060010190565b634e487b7160e01b600052603260045260246000fd5b600181811c908216806123aa57607f821691505b6020821081036123ca57634e487b7160e01b600052602260045260246000fd5b50919050565b601f82111561067257600081815260208120601f850160051c810160208610156123f75750805b601f850160051c820191505b8181101561241657828155600101612403565b505050505050565b815167ffffffffffffffff81111561243857612438611da6565b61244c816124468454612396565b846123d0565b602080601f83116001811461248157600084156124695750858301515b600019600386901b1c1916600185901b178555612416565b600085815260208120601f198616915b828110156124b057888601518255948401946001909101908401612491565b50858210156124ce5787850151600019600388901b60f8161c191681555b5050505050600190811b01905550565b808201808211156119c7576119c7612351565b818103818111156119c7576119c7612351565b634e487b7160e01b600052601260045260246000fd5b60008261252957612529612504565b500690565b60008161253d5761253d612351565b506000190190565b80820281158282048414176119c7576119c7612351565b60008261256b5761256b612504565b50049056fea264697066735822122016ab60f1773254c2783127f7f4499b95b8ddee0da3b751a299d0c5241e7cbe9264736f6c63430008110033",
  "linkReferences": {},
  "deployedLinkReferences": {}
}